{
  "contractName": "Splitter",
  "abi": [
    {
      "constant": true,
      "inputs": [
        {
          "name": "",
          "type": "bytes32"
        }
      ],
      "name": "namesAddresses",
      "outputs": [
        {
          "name": "",
          "type": "address"
        }
      ],
      "payable": false,
      "stateMutability": "view",
      "type": "function"
    },
    {
      "inputs": [
        {
          "name": "accounts",
          "type": "address[]"
        }
      ],
      "payable": false,
      "stateMutability": "nonpayable",
      "type": "constructor"
    },
    {
      "anonymous": false,
      "inputs": [
        {
          "indexed": false,
          "name": "sender",
          "type": "address"
        },
        {
          "indexed": false,
          "name": "amount",
          "type": "uint256"
        },
        {
          "indexed": false,
          "name": "splitting",
          "type": "uint256"
        }
      ],
      "name": "LogPay",
      "type": "event"
    },
    {
      "constant": true,
      "inputs": [
        {
          "name": "name",
          "type": "bytes32"
        }
      ],
      "name": "getBalance",
      "outputs": [
        {
          "name": "",
          "type": "uint256"
        }
      ],
      "payable": false,
      "stateMutability": "view",
      "type": "function"
    },
    {
      "constant": true,
      "inputs": [],
      "name": "getSplitterBalance",
      "outputs": [
        {
          "name": "",
          "type": "uint256"
        }
      ],
      "payable": false,
      "stateMutability": "view",
      "type": "function"
    },
    {
      "constant": false,
      "inputs": [],
      "name": "pay",
      "outputs": [
        {
          "name": "",
          "type": "bool"
        }
      ],
      "payable": true,
      "stateMutability": "payable",
      "type": "function"
    }
  ],
  "bytecode": "0x6060604052341561000f57600080fd5b60405161065038038061065083398101604052808051820191905050336000807f616c69636500000000000000000000000000000000000000000000000000000060001916815260200190815260200160002060006101000a81548173ffffffffffffffffffffffffffffffffffffffff021916908373ffffffffffffffffffffffffffffffffffffffff1602179055508060008151811015156100af57fe5b906020019060200201516000807f626f62000000000000000000000000000000000000000000000000000000000060001916815260200190815260200160002060006101000a81548173ffffffffffffffffffffffffffffffffffffffff021916908373ffffffffffffffffffffffffffffffffffffffff16021790555080600181518110151561013c57fe5b906020019060200201516000807f6361726f6c00000000000000000000000000000000000000000000000000000060001916815260200190815260200160002060006101000a81548173ffffffffffffffffffffffffffffffffffffffff021916908373ffffffffffffffffffffffffffffffffffffffff16021790555050610486806101ca6000396000f300606060405260043610610062576000357c0100000000000000000000000000000000000000000000000000000000900463ffffffff1680631b9265b81461006757806321c39fb9146100895780638e739461146100b2578063b2042ae6146100ed575b600080fd5b61006f610154565b604051808215151515815260200191505060405180910390f35b341561009457600080fd5b61009c6103ad565b6040518082815260200191505060405180910390f35b34156100bd57600080fd5b6100d76004808035600019169060200190919050506103cc565b6040518082815260200191505060405180910390f35b34156100f857600080fd5b610112600480803560001916906020019091905050610427565b604051808273ffffffffffffffffffffffffffffffffffffffff1673ffffffffffffffffffffffffffffffffffffffff16815260200191505060405180910390f35b6000806000341415151561016757600080fd5b6000807f616c69636500000000000000000000000000000000000000000000000000000060001916815260200190815260200160002060009054906101000a900473ffffffffffffffffffffffffffffffffffffffff1673ffffffffffffffffffffffffffffffffffffffff163373ffffffffffffffffffffffffffffffffffffffff161415156101f757600080fd5b60023481151561020357fe5b0490507f22aa2b4352b24d22794dc325b09991951e3ac5696c5bb48107b4413e63ee188e333483604051808473ffffffffffffffffffffffffffffffffffffffff1673ffffffffffffffffffffffffffffffffffffffff168152602001838152602001828152602001935050505060405180910390a16000807f626f62000000000000000000000000000000000000000000000000000000000060001916815260200190815260200160002060009054906101000a900473ffffffffffffffffffffffffffffffffffffffff1673ffffffffffffffffffffffffffffffffffffffff166108fc829081150290604051600060405180830381858888f19350505050151561030f57600080fd5b6000807f6361726f6c00000000000000000000000000000000000000000000000000000060001916815260200190815260200160002060009054906101000a900473ffffffffffffffffffffffffffffffffffffffff1673ffffffffffffffffffffffffffffffffffffffff166108fc829081150290604051600060405180830381858888f1935050505015156103a557600080fd5b600191505090565b60003073ffffffffffffffffffffffffffffffffffffffff1631905090565b6000806000836000191660001916815260200190815260200160002060009054906101000a900473ffffffffffffffffffffffffffffffffffffffff1673ffffffffffffffffffffffffffffffffffffffff16319050919050565b60006020528060005260406000206000915054906101000a900473ffffffffffffffffffffffffffffffffffffffff16815600a165627a7a72305820d5b63bcc7cff78d8ed2e474885ffee50dec9388bd5ffa19f9b1088e4619989aa0029",
  "source": "pragma solidity ^0.4.19;\n\ncontract Splitter {\n\n    mapping(bytes32 => address) public namesAddresses;\n\n    event LogPay(address sender, uint amount, uint splitting);\n\n    function Splitter (address[] accounts) \n        public\n    {\n        namesAddresses['alice'] = msg.sender;\n        namesAddresses['bob'] = accounts[0];\n        namesAddresses['carol'] = accounts[1];\n    }\n\n    function getBalance(bytes32 name)\n        public\n        constant\n        returns (uint)\n    {\n        return address(namesAddresses[name]).balance;\n    }\n\n    function getSplitterBalance()\n        public\n        constant\n        returns (uint)\n    {\n        return address(this).balance;\n    }\n\n    function pay()\n        public\n        payable\n        returns (bool)\n    {\n        require(msg.value!=0);\n        require(msg.sender==namesAddresses['alice']);\n        \n        uint splitting = uint(msg.value)/uint(2);\n\n        LogPay(msg.sender, msg.value, splitting);\n        namesAddresses['bob'].transfer(splitting);\n        namesAddresses['carol'].transfer(splitting);\n        \n        return true;\n    }\n}",
  "sourcePath": "/home/bob/DAPPS/splitter/contracts/Splitter.sol",
  "compiler": {
    "name": "solc",
    "version": "0.4.19+commit.c4cbbb05.Emscripten.clang"
  },
  "schemaVersion": "2.0.0",
  "updatedAt": "2018-04-27T12:40:08.126Z"
}